:060000000A128A110E280D
:10000800FE00030EF5000408F6000A08F7000A12BD
:100018008A11AD280A128A111128F801F901FA018A
:10002800FB01FC01FD0183120313A001A101A20140
:1000380083010A128A116329F20072283F30831261
:1000480003138700AC280630831203138700AC28FB
:100058005B30831203138700AC284F3083120313DD
:100068008700AC286630831203138700AC286D30F4
:10007800831203138700AC287D3083120313870093
:10008800AC280730831203138700AC287F30831213
:1000980003138700AC286F30831203138700AC2842
:1000A8007730831203138700AC287C308312031344
:1000B8008700AC283930831203138700AC285E30E0
:1000C800831203138700AC28793083120313870047
:1000D800AC287130831203138700AC287208F00033
:1000E800F1017108003A03197A28AC287008003A1F
:1000F80003192228013A03192728033A03192C283F
:10010800013A03193128073A03193628013A031925
:100118003B28033A03194028013A031945280F3AA6
:1001280003194A28013A03194F28033A0319542896
:10013800013A03195928073A03195E28013A0319A5
:100148006328033A03196828013A03196D28AC2873
:1001580008000B1DB028B128E5280B11EC308312DC
:10016800031381000130F3007308FB07091089109D
:100178007C08031DC028C128D828FC01FC0A0914E2
:100188007D08F30004300310F30CFF3E031DC7285D
:1001980073080F39F4007408FA007A080A128A11F1
:1001A80020200A128A11E528FC0189147D080F39DC
:1001B800F3007308A20022080A128A1120200A12EA
:1001C8008A11831203130C1FEA28EB28F0280C135A
:1001D8001E08F3007308FD000B1CF328F4282729D8
:1001E8000B10003006180130F9007908031DFD28AE
:1001F800FE28FF28A1012108031D032904290F292E
:100208007903031D082909290F290130F300730810
:100218008807A101A10A003086180130F800780883
:10022800031D172918291929A0012008031D1D29B4
:100238001E2927297803031D22292329272901306C
:100248008802A001A00A77088A0076088400750E43
:100258008300FE0E7E0E09008312031385018601BA
:100268008701880189018316031788010814890109
:100278000130831603138500FF308600870188014B
:1002880089010B110B108B170B178B168B15161476
:10029800961415149514831203130C138316031361
:1002A8000F128F160F179F014130831203139F00FF
:1002B800EC308100573083160313810008000A12BE
:1002C8008A1130210A128A110A128A1182210A120D
:1002D8008A110A128A1176210A128A1168290A12C9
:1002E8008A110E287D0883120313080203187D293A
:1002F8007E298029091581290911080006307B0209
:10030800031C872988298C29FB01831203139F1456
:020318000800DB
:04400E00D120FF3F7F
:00000001FF
